:020000040000FA
:020000000328D3
:040002000034003492
:0A0006008316F030860000308900F8
:10001000F8308800003087008312003089007E238A
:100020007E237E234230AB234930AB234530AB23C4
:100030004E30AB235630AB234530AB234E30AB2391
:100040004930AB234430AB234F30AB234F30023029
:100050008900C723C723C723C723C723C723C723B1
:10006000C7230030890084234930AB234E30AB23B3
:100070004730AB235230AB234530AB235330AB2357
:100080004530AB232030AB235030AB234930AB237A
:100090004E30AB233A30AB232030AB232030AB23A0
:1000A0002030AB232030AB230A30C1000730B20030
:1000B0000830C4000930C5000430C6000530C70050
:1000C0000630C8000130C9000230D0000A30B30049
:1000D0000A30C0000A30C2000A30C3000A30D10022
:1000E0000A30D2000A30D3000A30D4000621C723D8
:1000F0003308410203197628C7235521C723400836
:10010000410203197D28C723A421C72342084102C5
:1001100003198428C723F321C72343084102031985
:100120008B28C7234222C723510841020319922872
:10013000C7239122C7235208410203199928C723D4
:10014000E022C723530841020319A028C7232F2305
:10015000C723540841020319A728C72333083202D2
:100160000319B328EC20400844020319B828EC20F6
:10017000420845020319BD28EC2043084602031932
:10018000C228EC20510847020319C728EC20520866
:1001900048020319CC28EC20530849020319D1283E
:1001A000EC20540850020319D620EC207E237E2335
:1001B0007E234330AB234F30AB235230AB2352303E
:1001C000AB234530AB234330AB235430AB234F300C
:1001D000AB2301308900EB287E237E237E23493028
:1001E000AB234E30AB234330AB234F30AB235230E5
:1001F000AB235230AB234530AB234330AB235430D9
:10020000AB234F30AB230130890005290614051AB2
:100210008423051B2821061B3721861B4621061037
:100220008614051A2321051B2D21061B3C21861B44
:100230004B2186100615051B3221061B4121861B0A
:100240005021061108000030B3003030AB23080005
:100250000130B3003730AB2308000230B300383030
:10026000AB2308000330B3003930AB23080004305F
:10027000B3003430AB2308000530B3003530AB2376
:1002800008000630B3003630AB2308000730B30057
:100290003130AB2308000830B3003230AB23080004
:1002A0000930B3003330AB2308000614051A842349
:1002B000051B7721061B8621861B952106108614B7
:1002C000051A7221051B7C21061B8B21861B9A2196
:1002D00086100615051B8121061B9021861B9F2178
:1002E000061108000030C0003030AB230800013098
:1002F000C0003730AB2308000230C0003830AB23D9
:1003000008000330C0003930AB2308000430C000BF
:100310003430AB2308000530C0003530AB23080073
:100320000630C0003630AB2308000730C000313043
:10033000AB2308000830C0003230AB23080009307E
:10034000C0003330AB2308000614051A8423051BB4
:10035000C621061BD521861BE42106108614051A2A
:10036000C121051BCB21061BDA21861BE921861042
:100370000615051BD021061BDF21861BEE21061169
:1003800008000030C2003030AB2308000130C2004A
:100390003730AB2308000230C2003830AB230800EE
:1003A0000330C2003930AB2308000430C2003430BF
:1003B000AB2308000530C2003530AB2308000630FF
:1003C000C2003630AB2308000730C2003130AB2307
:1003D00008000830C2003230AB2308000930C200E8
:1003E0003330AB2308000614051A8423051B15229D
:1003F000061B2422861B332206108614051A10229F
:10040000051B1A22061B2922861B38228610061578
:10041000051B1F22061B2E22861B3D2206110800EB
:100420000030C3003030AB2308000130C300373048
:10043000AB2308000230C3003830AB230800033080
:10044000C3003930AB2308000430C3003430AB2381
:1004500008000530C3003530AB2308000630C30068
:100460003630AB2308000730C3003130AB2308001F
:100470000830C3003230AB2308000930C3003330EA
:10048000AB2308000614051A8423051B6422061BEF
:100490007322861B822206108614051A5F22051B12
:1004A0006922061B7822861B872286100615051BEB
:1004B0006E22061B7D22861B8C220611080000304E
:1004C000D1003030AB2308000130D1003730AB23EE
:1004D00008000230D1003830AB2308000330D100CF
:1004E0003330AB2308000430D1003930AB2308008F
:1004F0000530D1003530AB2308000630D10036304E
:10050000AB2308000730D1003130AB23080008309E
:10051000D1003230AB2308000930D1003330AB2397
:1005200008000614051A8423051BB322061BC222E9
:10053000861BD12206108614051AAE22051BB8228E
:10054000061BC722861BD62286100615051BBD2258
:10055000061BCC22861BDB22061108000030D200CD
:100560003030AB2308000130D2003730AB23080015
:100570000230D2003830AB2308000330D2003930CB
:10058000AB2308000430D2003430AB230800053020
:10059000D2003530AB2308000630D2003630AB2312
:1005A00008000730D2003130AB2308000830D200F9
:1005B0003230AB2308000930D2003330AB230800BF
:1005C0000614051A8423051B0223061B1123861B10
:1005D000202306108614051AFD22051B0723061B7F
:1005E0001623861B252386100615051B0C23061BC8
:1005F0001B23861B2A23061108000030D30030304D
:10060000AB2308000130D3003730AB2308000230A1
:10061000D3003830AB2308000330D3003930AB238C
:1006200008000430D3003430AB2308000530D30079
:100630003530AB2308000630D3003630AB2308003A
:100640000730D3003130AB2308000830D3003230FC
:10065000AB2308000930D3003330AB230800061465
:10066000051A8423051B5123061B6023861B6F2359
:1006700006108614051A4C23051B5623061B6523FA
:10068000861B742386100615051B5B23061B6A2335
:10069000861B7923061108000030D4003030AB23CC
:1006A00008000130D4003730AB2308000230D400FA
:1006B0003830AB2308000330D4003930AB230800B6
:1006C0000430D4003430AB2308000530D40035307A
:1006D000AB2308000630D4003630AB2308000730C7
:1006E000D4003130AB2308000830D4003230AB23C3
:1006F00008000930D4003330AB2308000130B523A3
:10070000B501B601B70108007E237E237E230A309F
:10071000B3000A30C0000A30C2000A30C3000A30F9
:10072000D1000A30D2000A30D3000A30D400BC23F2
:1007300034280A30B3000A30C0000A30C2000A3040
:10074000C3000A30D1000A30D2000A30D3000A3088
:10075000D400BC233428081488100815B523383079
:10076000B5230E30B5230814080087000811BC23F8
:100770000815BC23081008000D30B800FB30B90084
:10078000B90BC02BB80BC02B0800080008000000F4
:100790009630B100B10BCA2B2A30A00000004430C3
:1007A000A1000F30B0000000B00BD32BA10BD12B58
:0607B000A00BCE2B080097
:02400E00F42C90
:02401000FF3F70
:00000001FF
